:020000040000FA
:060000008A150A16A02F6C
:043000000034003464
:083F3800000000000000000081
:103F400083018316243098000A3099008312903040
:103F50009800ED27C13C031DFE2F313099008301ED
:103F60004B309900F801ED2703178F00FE008316F0
:103F7000FE00ED2703178D00ED27F900FA00FA0A7D
:103F80001F308400ED27840A8000FA0BC22FF80846
:103F9000031DEA2F031720308400640000088C0002
:103FA000840A00088E00840A83168C177E1B8C13EB
:103FB0000C1555308D00AA308D008C1400000000C7
:103FC0008C18E02F0C1183128D0A7E1FF903F90B58
:103FD000CD2FAF2F4E309900B22F83010B30FB0055
:103FE000FC01FD018C1EF72F1A08F8070800640079
:103FF000FD0BF22FFC0BF12FFB0BF02F98139C2FD6
:02400E00723FFF
:00000001FF
