:020000040000FA
:020000009F332C
:100F40008731113086002100191722001D119D10D4
:100F500023008D0124309E0033309B0090309D0093
:100F6000D727C13C031D323226309A0042309A0006
:100F7000F801D7279200FE00D7279100D527F90066
:100F8000FA00D7271A00FA0BFC33D5274E30031D81
:100F9000EE331200930012009400791BEA27EB272E
:100FA000910AF903F90BF533E1332030840009305D
:100FB000FB00FC01FD01811E03321908F80708003F
:100FC000FD0BF933FC0BF633FB0BF3339D132000C1
:100FD0008A01B23315167E1F9517151555309600E8
:0E0FE000AA309600951400000000950108004C
:020000040001F9
:02000E00C439F3
:02001000FF1CD3
:00000001FF
