:020000040000FA
:040000008A01002A47
:080008008A062A15201542109A
:10001000EF376C3AE137653220396529F23BF43429
:10002000A032312B301720182A102A158A068A068A
:100030007222E730E1166437C4166F3920386F2119
:10004000F4376F36E430F2324810F8323E10001FB9
:100050003E1F5210F6314F108025A110A0106529C7
:10006000E43045107239F2372110A11000006529E3
:0C007000F23BF434A0326F226537000030
:10020000FF3FFF3FFF3FFF3FFF3FFF3FFF3FFF3FFE
:10021000FF3FFF3FFF3FFF3FFF3FFF3FFF3FFF3FEE
:10022000FF3FFF3FFF3FFF3FFF3FFF3FFF3FFF3FDE
:10023000FF3FFF3FFF3FFF3FFF3FFF3FFF3FFF3FCE
:10024000FF3FFF3FFF3FFF3FFF3FFF3FFF3FFF3FBE
:10025000FF3FFF3FFF3FFF3FFF3FFF3FFF3FFF3FAE
:10026000FF3FFF3FFF3FFF3FFF3FFF3FFF3FFF3F9E
:10027000FF3FFF3FFF3FFF3FFF3FFF3FFF3FFF3F8E
:10028000FF3FFF3FFF3FFF3FFF3FFF3FFF3FFF3F7E
:10029000FF3FFF3FFF3FFF3FFF3FFF3FFF3FFF3F6E
:1002A000FF3FFF3FFF3FFF3FFF3FFF3FFF3FFF3F5E
:1002B000FF3FFF3FFF3FFF3FFF3FFF3FFF3FFF3F4E
:1002C000FF3FFF3FFF3FFF3FFF3FFF3FFF3FFF3F3E
:1002D000FF3FFF3FFF3FFF3FFF3FFF3FFF3FFF3F2E
:1002E000FF3FFF3FFF3FFF3FFF3FFF3FFF3FFF3F1E
:1002F000FF3FFF3FFF3FFF3FFF3FFF3FFF3FFF3F0E
:10030000FF3FFF3FFF3FFF3FFF3FFF3FFF3FFF3FFD
:10031000FF3FFF3FFF3FFF3FFF3FFF3FFF3FFF3FED
:10032000FF3FFF3FFF3FFF3FFF3FFF3FFF3FFF3FDD
:10033000FF3FFF3FFF3FFF3FFF3FFF3FFF3FFF3FCD
:10034000FF3FFF3FFF3FFF3FFF3FFF3FFF3FFF3FBD
:10035000FF3FFF3FFF3FFF3FFF3FFF3FFF3FFF3FAD
:10036000FF3FFF3FFF3FFF3FFF3FFF3FFF3FFF3F9D
:10037000FF3FFF3FFF3FFF3FFF3FFF3FFF3FFF3F8D
:10038000FF3FFF3FFF3FFF3FFF3FFF3FFF3FFF3F7D
:10039000FF3FFF3FFF3FFF3FFF3FFF3FFF3FFF3F6D
:1003A000FF3FFF3FFF3FFF3FFF3FFF3FFF3FFF3F5D
:1003B000FF3FFF3FFF3FFF3FFF3FFF3FFF3FFF3F4D
:1003C000FF3FFF3FFF3FFF3FFF3FFF3FFF3FFF3F3D
:1003D000FF3FFF3FFF3FFF3FFF3FFF3FFF3FFF3F2D
:1003E000FF3FFF3FFF3FFF3FFF3FFF3FFF3FFF3F1D
:1003F000FF3FFF3FFF3FFF3FFF3FFF3FFF3FFF3F0D
:1004000023009D17200004308F22AC223A30740262
:10041000031D052AF2018022F0000319512A8022CF
:10042000F100802223009100200023000310710CB2
:100430009200910C2000073C031D052A230011089F
:10044000F300200080307302031C052A8022230061
:10045000013092009103200080222300910A930032
:100460002000F00380222300940020008430B32277
:10047000F00B2C2A23001108F30020007308013E22
:1004800083184D2A23003F309400FF309300910AD7
:1004900020008430B322F30A3E2A8022031D772AEB
:1004A000052A28308F22A222A2227A221030F000C0
:1004B0009430B3222300103091072000F00B582A0B
:1004C0007A22F0012300013092002000BF22230095
:1004D0000730920020008430B3222300910A2000CC
:1004E000F00B622AA22237308F22A222762A2D30E8
:1004F0008F22792A23000730920091012000080002
:10050000AC22C930741FD0307407F300AC22C9305C
:10051000741FD0307407F30E7307F207080023002E
:10052000910092012000BF222300910A930D140D27
:10053000930C2000A52223001308200003190800B3
:10054000A522932A0D30A5220A3023009E1CFD33DC
:1005500023009A0020000800911EFE332300190892
:10056000F400200008002300950055309600AA30C2
:10057000960095140000000095012000080023005B
:0E0580009517151400000000950120000800DA
:00000001FF
