:020000040000FA
:02000000AF331C
:100F600087312100191722001D119D1323008C01C8
:100F700024309E0033309B0090309D00E227C13C1E
:100F8000031D2F3237309A0042309A00FA01E227CF
:100F90009200FF00E2279100E227FB00E227930086
:100FA000FB03E2279400A430F727910AFB0BF633EA
:100FB000E2274E30031DE933910304307F1FF627EB
:100FC000F727E2330A30FC002000911E0432230090
:100FD0001908FA070800FE0BF733FD0BF533FC0B7D
:100FE000F33395019D1320008031B6339430950082
:100FF00055309600AA309600951400000000843405
:020000040001F9
:02000E00C439F3
:02001000FF1CD3
:00000001FF
