:020000040000FA
:04000000A0EF0FF06E
:081F38000000000000000000A1
:101F4000700ED36E600EC16E240EAC6E190EAF6EA5
:101F5000900EAB6E41D8C1084EE16B0EAD6E430ED4
:101F6000AD6E006A39D8F86E076E36D8F76E34D881
:101F7000F66EA96E31D8016E012A00EE09F0F56EF9
:101F80002BD8EC6E01A0A86E012EF9D7006619D0EF
:101F900007AC03D0040E18D812D0940E15D80A003E
:101FA000080E056E00EE0AF0080E066EEE50F56E95
:101FB0000F00062EFBD7840E07D8052EF5D7A69462
:101FC000CED74E0EAD6ECDD7A66E550EA76EAA0E0D
:101FD000A76EA68200001200050E026E036A046A54
:101FE0009EAA03D0AE5000261200042EF9D7032E6D
:0A1FF000F6D7022EF3D7AB9E9FD761
:021FFA000000E5
:020000040030CA
:0100010008F6
:0100020014E9
:010003001EDE
:010004000EED
:010005008179
:010006008178
:0100080003F4
:01000900C036
:01000A0003F2
:01000B00E014
:01000C0003F0
:01000D0040B2
:00000001FF
