:020000040000FA
:0400000040EF00F0DD
:080008000D0A2A2A2A202042D9
:100010006F6F746C6F61646572205265777269747A
:10002000652056312E303020202A2A2A0D0A0D0A4A
:10003000447261672D616E642D44726F7020426F4F
:100040006F746C6F6164657220486578203E3E0075
:1000500000003E3E20526376204F4B2000002121BD
:10006000212052656164204572726F722021212126
:1000700000005265777269746520446F6E650000F8
:10008000900EAB6EEA6AE96AFF0EEE6EE966FDD786
:10009000080E53D862D83A0EAE62FCD7D96A3ED861
:1000A000E16E15E03BD8F76E39D8E96E3F0EF76286
:1000B000F1D7000EE95CEEE331D8EA6A2FD8EE6E94
:1000C000E12EFCD72BD8E6E05E0E37D8FFD7520ED4
:1000D00034D83CD83BD81BD8040EE16E940E40D8DF
:1000E000400EF626E12EFAD712D80A00EA6AE96A2B
:1000F000E188EECFF5FF0F00E12EFBD7840E30D85C
:10010000E966F6D723D8720E18D820D8FFD7000E8C
:10011000F86E3F0EF76E000EF66E12001ED8C90E76
:10012000AEACD00EAE24F66E18D8C90EAEACD00E62
:10013000AE24F63AF624D9261200F66EF76AF86A6B
:100140000900F550D8B4120004D8FAD70D0E01D822
:100150000A0EACA2FED7AD6E12009EAAFED7120008
:10016000A66E550EA76EAA0EA76EA682000000000E
:0201700012007B
:00000001FF
