:020000040000FA
:040000008A01002A47
:080008008A062A15201542109A
:10001000EF376C3AE137653220396529F23BF43429
:10002000A032312B301720182A102A158A068A068A
:100030007222E730E1166437C4166F3920386F2119
:10004000F4376F36E430F2324810F8323E10001FB9
:100050003E1F5210F6314F108025A110A0106529C7
:10006000E43045107239F2372110A11000006529E3
:0C007000F23BF434A0326F226537000030
:10020000FF3FFF3FFF3FFF3FFF3FFF3FFF3FFF3FFE
:10021000FF3FFF3FFF3FFF3FFF3FFF3FFF3FFF3FEE
:10022000FF3FFF3FFF3FFF3FFF3FFF3FFF3FFF3FDE
:10023000FF3FFF3FFF3FFF3FFF3FFF3FFF3FFF3FCE
:10024000FF3FFF3FFF3FFF3FFF3FFF3FFF3FFF3FBE
:10025000FF3FFF3FFF3FFF3FFF3FFF3FFF3FFF3FAE
:10026000FF3FFF3FFF3FFF3FFF3FFF3FFF3FFF3F9E
:10027000FF3FFF3FFF3FFF3FFF3FFF3FFF3FFF3F8E
:10028000FF3FFF3FFF3FFF3FFF3FFF3FFF3FFF3F7E
:10029000FF3FFF3FFF3FFF3FFF3FFF3FFF3FFF3F6E
:1002A000FF3FFF3FFF3FFF3FFF3FFF3FFF3FFF3F5E
:1002B000FF3FFF3FFF3FFF3FFF3FFF3FFF3FFF3F4E
:1002C000FF3FFF3FFF3FFF3FFF3FFF3FFF3FFF3F3E
:1002D000FF3FFF3FFF3FFF3FFF3FFF3FFF3FFF3F2E
:1002E000FF3FFF3FFF3FFF3FFF3FFF3FFF3FFF3F1E
:1002F000FF3FFF3FFF3FFF3FFF3FFF3FFF3FFF3F0E
:10030000FF3FFF3FFF3FFF3FFF3FFF3FFF3FFF3FFD
:10031000FF3FFF3FFF3FFF3FFF3FFF3FFF3FFF3FED
:10032000FF3FFF3FFF3FFF3FFF3FFF3FFF3FFF3FDD
:10033000FF3FFF3FFF3FFF3FFF3FFF3FFF3FFF3FCD
:10034000FF3FFF3FFF3FFF3FFF3FFF3FFF3FFF3FBD
:10035000FF3FFF3FFF3FFF3FFF3FFF3FFF3FFF3FAD
:10036000FF3FFF3FFF3FFF3FFF3FFF3FFF3FFF3F9D
:10037000FF3FFF3FFF3FFF3FFF3FFF3FFF3FFF3F8D
:10038000FF3FFF3FFF3FFF3FFF3FFF3FFF3FFF3F7D
:10039000FF3FFF3FFF3FFF3FFF3FFF3FFF3FFF3F6D
:1003A000FF3FFF3FFF3FFF3FFF3FFF3FFF3FFF3F5D
:1003B000FF3FFF3FFF3FFF3FFF3FFF3FFF3FFF3F4D
:1003C000FF3FFF3FFF3FFF3FFF3FFF3FFF3FFF3F3D
:1003D000FF3FFF3FFF3FFF3FFF3FFF3FFF3FFF3F2D
:1003E000FF3FFF3FFF3FFF3FFF3FFF3FFF3FFF3F1D
:1003F000FF3FFF3FFF3FFF3FFF3FFF3FFF3FFF3F0D
:1004000004308C22B5223A307402031D022AF20114
:100410007D22F00003194E2A7D22F1007D228316F1
:100420009A00831283160310710C9B009A0C83129E
:10043000073C031D022A83161A08F3008312A0301A
:100440007302031C022A7D22831601309B009A034B
:1004500083127D2283169A0A9C008312F0037D2268
:1004600083169D0083128430C222F00B292A831642
:100470001A08F30083127308013E83184A2A831670
:100480003F309D00FF309C009A0A83128430C222C4
:10049000F30A3B2A7D22031D742A022A28308C226B
:1004A0009F229F2277221030F0009430C2228316C0
:1004B00010309A078312F00B552A7722F001831629
:1004C00001309B008312CE22831607309B008312DB
:1004D0008430C22283169A0A8312F00B5F2A9F226D
:1004E00037308C229F22732A2D308C22762A831655
:1004F00007309B009A0183120800B522C930741F8F
:10050000D0307407F300B522C930741FD03074079F
:10051000F30E7307F207080083169A009B018312FB
:10052000CE2283169A0A9C0D1D0D9C0C8312A222CA
:1005300083161C08831203190800A222902A0D308A
:10054000A2220A30F4000512AF22F40C031C05129B
:1005500003180516AF220310740BA52A0516B02246
:10056000E830013E031DB12A8034851AB52AB02235
:10057000F400AF22851E0310F40C031CB92AAF222D
:10058000740808008316980055309900AA30990025
:100590009814000000009801831208008316981731
:0C05A000181400000000980183120800ED
:00000001FF
