:020000040000FA
:04000000A0EF7FF0FE
:08FF38000000000000000000C1
:10FF4000240EAC6E330EAF6E900EAB6E42D8C1086D
:10FF50004FE14F0EAD6E4B0EAD6E006A3AD8F86EA3
:10FF6000076E37D8F76EAA6E34D8F66EA96E31D800
:10FF7000016E012A00EE09F0F56E2BD8EC6E01A09F
:10FF8000A86E012EF9D7006619D007AC03D0040E75
:10FF900018D812D0940E15D80A00080E056E00EE7F
:10FFA0000AF0080E066EEE50F56E0F00062EFBD717
:10FFB000840E07D8052EF5D7A694CDD74E0EAD6E7C
:10FFC000CCD7A66E550EA76EAA0EA76EA68200000D
:10FFD0001200090E026E036A046A9EAA03D0AE5094
:10FFE00000261200042EF9D7032EF6D7022EF3D7DF
:04FFF000AB9EA2D74B
:00000001FF
