:020000040000FA
:04000000A0EF7FF0FE
:08FF38000000000000000000C1
:10FF4000700ED36E240EAC6E190EAF6E900EAB6EAB
:10FF50003ED8C1084BE14F0EAD6E4B0EAD6E006A40
:10FF600036D8F86E076E33D8F76EAA6E30D8F66EB4
:10FF7000A96E2DD8016E012A00EE09F0F56E27D882
:10FF8000EC6E01A0A86E012EF9D7006615D007AC63
:10FF900003D0040E14D80ED0940E11D80A0000EE2F
:10FFA0000AF0400E066EEE50F56E0F00062EFBD7DF
:10FFB000840E05D8A694D1D74E0EAD6ED0D7A66EBE
:10FFC000550EA76EAA0EA76EA68200001200050E9F
:10FFD000026E036A046A9EAA03D0AE500026120085
:10FFE000042EF9D7032EF6D7022EF3D7AB9EA4D753
:020000040030CA
:0300010008160ED0
:020005008081F8
:060008000FC00FE00F40E5
:00000001FF
