:020000040000FA
:04000000A0EF3FF03E
:087F3800000000000000000041
:107F4000240EAC6E0A0EAF6E900EAB6E41D8C10817
:107F50004EE1410EAD6E4B0EAD6E006A39D8F86E33
:107F6000076E36D8F76E34D8F66EA96E31D8016E2A
:107F7000012A00EE09F0F56E2BD8EC6E01A0A86E78
:107F8000012EF9D7006619D007AC03D0040E18D81B
:107F900012D0940E15D80A00080E056E00EE0AF0F5
:107FA000080E066EEE50F56E0F00062EFBD7840EFF
:107FB00007D8052EF5D7A694CED74E0EAD6ECDD7E9
:107FC000A66E550EA76EAA0EA76EA682000012001E
:107FD0000B0E026E036A046A9EAA03D0AE500026FE
:107FE0001200042EF9D7032EF6D7022EF3D7AB9E3C
:027FF000A3D715
:020000040030CA
:04000000FFFAFEFE07
:02000600FBFFFE
:00000001FF
