:020000040000FA
:020000009F332C
:103F40009F31113086002100191723008E01243083
:103F50009E0033309B0090309D00CE27C13C031D56
:103F60002C3229309A0042309A00FB01CE27920071
:103F7000CE279100CE27FC00CE279300FC03CE274E
:103F800094002430E327910AFC0BF633CE274E3001
:103F9000031DEA339103E227E327E5330930FD00EF
:103FA000FE01FF01811E03321908FB070800FF0B09
:103FB000F933FE0BF633FD0BF33395019D1320000F
:103FC0008A01BA331430950055309600AA30960015
:083FD000951400000000043408
:020000040001F9
:02000E00C439F3
:02001000FF1DD2
:00000001FF
