:020000020000FC
:020000009FCF90
:100F4000B99A96E591BF41D0915C09F04AC095E10C
:100F50002CD091E32AD0332738D0F92F592F000015
:100F600034D0E92F9EBBEE0FFF1F32972ED0692F92
:100F70002CD0092E9DBB29D0192E329691E012D08B
:100F80006250B1F722D049F456FD05C093E00AD073
:100F900095E008D0DECF03D0DCCF9EE4DBCFE29A31
:100FA000E19A089597BFE8950895C19A84E104C035
:100FB000979508F4C19A08F0C19801D0C9F700D0FC
:100FC00076E87150F0F78A95089541E1CC27DD2746
:100FD000B09903C009D0390F08952197C9F74A95F0
:100FE000A9F7AACFB099FECFEBDF82E19795E7DFB3
:080FF000B09B8894D9F7089525
:00000001FF
