:020000020000FC
:020000007FCFB0
:107F000093E9B0E0A6E69C9399E1B0E0A4EC9C93E1
:107F100098E1B0E0A1EC9C9348D0915C09F054C08A
:107F200095E231D092E32FD044273FD0F92F692F2B
:107F300092BD3BD0E92F91BDEE0FFF1F329735D098
:107F4000792F33D0092E90BD30D0192E329691E082
:107F500014D07250B1F729D049F466FD05C093E002
:107F60000CD095E00AD0DECF03D0DCCF9EE4DBCF8F
:107F7000F999FECFFA9AF99A089587B780FDFDCF57
:107F800097BFE8950895B0E0A0EC8C9185FFFBCFFA
:107F9000B0E0A6EC9C930895B0E0A0EC8C9187FF34
:107FA000FBCFB0E0A6EC9C91089551E1CC27DD27F2
:107FB000B0E0A0EC8C9187FF03C0F3DF490F089578
:0A7FC0002197B1F75A9591F797CF7A
:00000001FF
