:020000040000FA
:04000000A0EF3FF03E
:087F3800000000000000000041
:107F4000D3880F01236B240EAC6F330EAF6F900EEE
:107F5000AB6F00011FEEADF041D8C1084DE16C0ED2
:107F6000E76E430EE76E806B39D8F86E856F36D8B2
:107F7000F76E636E33D8F66E626E30D8816F866F9F
:107F8000E96A2CD8EE6EF56E616E812FFAD726D88D
:107F90004E0EE8E185AD03D0040E18D811D0E96A81
:107FA00085AF06D00A000ED811D8862FFCD708D08E
:107FB000940E0CD80A0006D8862FFDD7840E06D85A
:107FC0007F94CFD7EE50F56E0F00C40C7F6E550E28
:107FD0007E6EAA0E7E6E7F82000012000A0E826FF5
:107FE0009EAA04D0E12AE55080271200842FF8D7FA
:0E7FF000832FF6D7822FF4D7FE0EE39E9DD787
:020000040030CA
:070000001D081800018980B2
:060008000FC00FE00F40E5
:00000001FF
