:020000040000FA
:02000000A02B33
:1007400083168F16051003178501C6238301C13C4C
:10075000031DD62B1C30ED2342308301ED23FA011B
:10076000C6238F00C6238E00C6238E03E323E32314
:10077000E323C023C6234E30031DAD2BE423AC2B53
:100780008E0AC6239000C62391000800830106301C
:10079000FB008518D02BD923FA070317831608000E
:1007A000FD0BC92BFC0BC92BFB0BC92B9C2B8518F4
:1007B000D72BFA23FE00FF0CF923851C0310FE0B38
:1007C000DB2B7F080800C0230C1555308D00AA30A4
:1007D0008D008C140000000008000514FF00F823B1
:1007E000FE00FF0CF523FE0BF12B03180514031C70
:0E07F0000510FA23E830013E031DFB2B0934EF
:02400E00E63C8E
:00000001FF
