:020000040000FA
:0400000080EF3FF05E
:087EF800000000000000000082
:107F0000D3880F01236B240EAC6F330EAF6F900E2E
:107F1000AB6F00011FEEADF043D8C1084FE16D0E0D
:107F2000E76E430EE76E006A3BD8F86E056E38D8F0
:107F3000F76E636E35D8F66E626E32D8016E066EDD
:107F400001EE00F02DD8EE6EF56E616E012EFAD7BF
:107F500027D84E0EE7E105AC03D0040E19D812D095
:107F600001EE00F005AE06D00A000ED811D8062E9C
:107F7000FCD708D0940E0CD80A0006D8062EFDD7E0
:107F8000840E06D87F94CDD7EE50F56E0F00C40C4A
:107F90007F6E550E7E6EAA0E7E6E7F8200001200EE
:107FA0000A0E026E9EAA04D0E12AE55000261200B5
:107FB000042EF8D7032EF6D7022EF4D7FE0EE39E3A
:027FC0009BD74D
:020000040030CA
:070000001D081800018980B2
:060008000FC00FE00F40E5
:00000001FF
