:020000040000FA
:020000009F332C
:100740008331210019170C1223008C01C6232000CD
:10075000C13C031D32321730EB2342302000EB2323
:10076000FA01C6239200C6239100C623C623930034
:10077000C6239400E0239107831CF833C6234E3030
:10078000031DEC339103DF23E123E73320000A301C
:10079000FB008C1A0C32F823FE00FF0CF7238C1E92
:1007A0000310FE0BFA337F08FA0723000800FD0B45
:1007B000F033FC0BEE33FB0BEC338A01BD33151623
:1007C0009516151555309600AA3096009514000020
:1007D0000000950101340C16FF00F623FE00FF0C0B
:1007E000F323FE0BFC3303180C16031C0C12F82326
:0A07F000CE30013E031DFD33093435
:020000040001F9
:02000E00C439F3
:02001000FF1DD2
:00000001FF
