:040000008A15B02F7E
:101F60009030980083162430980019309900EE279D
:101F70008301C13C031DFD2F3D3099004230830198
:101F80009900F801EE278F00FE00EE278D00EC2768
:101F9000F900FA00EE278000840AFA0BCA2FEC271A
:101FA0004E30031DBF2F00088C00840A00088E00ED
:101FB000840A04307E1F803E83168C00DF2F55304C
:101FC0008D00AA308D008C140000000083128D0A51
:101FD000F903F90BD32FBE2F203084000630FB000D
:101FE00083018C1EF72F1A08F80703170800FD0B52
:0E1FF000F02FFC0BF02FFB0BF02F9813AC2FF3
:02400E00323F3F
:00000001FF
