:020000040000FA
:04000000A0EF1FF05E
:083F3800000000000000000081
:103F4000D38C7E6A240EAC6E330EAF6E900EAB6EC9
:103F5000070E7F6E43D8C10850E1620EAD6E430E6E
:103F6000AD6E406A3BD8F86E456E38D8F76E36D8DD
:103F7000F66EA96E33D8416E466EE96A2FD8EE6EA2
:103F8000F56EA86E412EFAD729D84E0EE9E145AC60
:103F900003D0040E1BD814D0E96A45AE06D00A003F
:103FA00011D814D8462EFCD70BD0940E0FD80A0087
:103FB000418808D8412EFDD7840E08D8E9ACF8D73F
:103FC000A694CDD7EE50F56E0F00C40CA66E550E1C
:103FD000A76EAA0EA76EA68200001200090E426EFE
:103FE000436A446A9EAA03D0AE5040261200442E73
:0E3FF000F9D7432EF6D7422EF3D7AB9E9DD7BE
:020000040030CA
:03000100081800DC
:020005008080F9
:0600080003C003E0034009
:00000001FF
